{
  "address": "0xCf7Ed3AccA5a467e9e704C703E8D87F634fB0Fc9",
  "abi": [
    {
      "inputs": [
        {
          "internalType": "address",
          "name": "_vrfCoordinatorAddress",
          "type": "address"
        },
        {
          "internalType": "uint256",
          "name": "_entranceFee",
          "type": "uint256"
        },
        {
          "internalType": "bytes32",
          "name": "_keyHash",
          "type": "bytes32"
        },
        {
          "internalType": "uint64",
          "name": "_subscriptionId",
          "type": "uint64"
        },
        {
          "internalType": "uint32",
          "name": "_callbackGasLimit",
          "type": "uint32"
        },
        {
          "internalType": "uint256",
          "name": "_interval",
          "type": "uint256"
        }
      ],
      "stateMutability": "nonpayable",
      "type": "constructor"
    },
    {
      "inputs": [
        {
          "internalType": "address",
          "name": "have",
          "type": "address"
        },
        {
          "internalType": "address",
          "name": "want",
          "type": "address"
        }
      ],
      "name": "OnlyCoordinatorCanFulfill",
      "type": "error"
    },
    {
      "inputs": [],
      "name": "Raffle__InsufficientFee",
      "type": "error"
    },
    {
      "inputs": [],
      "name": "Raffle__NotOpen",
      "type": "error"
    },
    {
      "inputs": [],
      "name": "Raffle__TransferFailed",
      "type": "error"
    },
    {
      "inputs": [
        {
          "internalType": "uint256",
          "name": "currentBalance",
          "type": "uint256"
        },
        {
          "internalType": "uint256",
          "name": "numPlayers",
          "type": "uint256"
        },
        {
          "internalType": "uint256",
          "name": "raffleState",
          "type": "uint256"
        }
      ],
      "name": "Raffle__UpkeepNotNeeded",
      "type": "error"
    },
    {
      "anonymous": false,
      "inputs": [
        {
          "indexed": true,
          "internalType": "address",
          "name": "player",
          "type": "address"
        }
      ],
      "name": "RaffleEnter",
      "type": "event"
    },
    {
      "anonymous": false,
      "inputs": [
        {
          "indexed": false,
          "internalType": "uint256",
          "name": "requestId",
          "type": "uint256"
        }
      ],
      "name": "RequestedRaffleWinner",
      "type": "event"
    },
    {
      "anonymous": false,
      "inputs": [
        {
          "indexed": true,
          "internalType": "address",
          "name": "winner",
          "type": "address"
        }
      ],
      "name": "WinnerPicked",
      "type": "event"
    },
    {
      "stateMutability": "payable",
      "type": "fallback"
    },
    {
      "inputs": [
        {
          "internalType": "bytes",
          "name": "",
          "type": "bytes"
        }
      ],
      "name": "checkUpkeep",
      "outputs": [
        {
          "internalType": "bool",
          "name": "upkeepNeeded",
          "type": "bool"
        },
        {
          "internalType": "bytes",
          "name": "",
          "type": "bytes"
        }
      ],
      "stateMutability": "view",
      "type": "function"
    },
    {
      "inputs": [],
      "name": "enterRaffle",
      "outputs": [],
      "stateMutability": "payable",
      "type": "function"
    },
    {
      "inputs": [],
      "name": "getEntranceFee",
      "outputs": [
        {
          "internalType": "uint256",
          "name": "",
          "type": "uint256"
        }
      ],
      "stateMutability": "view",
      "type": "function"
    },
    {
      "inputs": [],
      "name": "getInterval",
      "outputs": [
        {
          "internalType": "uint256",
          "name": "",
          "type": "uint256"
        }
      ],
      "stateMutability": "view",
      "type": "function"
    },
    {
      "inputs": [],
      "name": "getLatestTimestamp",
      "outputs": [
        {
          "internalType": "uint256",
          "name": "",
          "type": "uint256"
        }
      ],
      "stateMutability": "view",
      "type": "function"
    },
    {
      "inputs": [],
      "name": "getNumberOfPlayers",
      "outputs": [
        {
          "internalType": "uint256",
          "name": "",
          "type": "uint256"
        }
      ],
      "stateMutability": "view",
      "type": "function"
    },
    {
      "inputs": [
        {
          "internalType": "uint256",
          "name": "_index",
          "type": "uint256"
        }
      ],
      "name": "getPlayer",
      "outputs": [
        {
          "internalType": "address",
          "name": "",
          "type": "address"
        }
      ],
      "stateMutability": "view",
      "type": "function"
    },
    {
      "inputs": [],
      "name": "getRaffleState",
      "outputs": [
        {
          "internalType": "uint256",
          "name": "",
          "type": "uint256"
        }
      ],
      "stateMutability": "view",
      "type": "function"
    },
    {
      "inputs": [],
      "name": "getRecentWinner",
      "outputs": [
        {
          "internalType": "address",
          "name": "",
          "type": "address"
        }
      ],
      "stateMutability": "view",
      "type": "function"
    },
    {
      "inputs": [
        {
          "internalType": "bytes",
          "name": "",
          "type": "bytes"
        }
      ],
      "name": "performUpkeep",
      "outputs": [],
      "stateMutability": "nonpayable",
      "type": "function"
    },
    {
      "inputs": [
        {
          "internalType": "uint256",
          "name": "requestId",
          "type": "uint256"
        },
        {
          "internalType": "uint256[]",
          "name": "randomWords",
          "type": "uint256[]"
        }
      ],
      "name": "rawFulfillRandomWords",
      "outputs": [],
      "stateMutability": "nonpayable",
      "type": "function"
    },
    {
      "stateMutability": "payable",
      "type": "receive"
    }
  ],
  "transactionHash": "0x21329957ce8cf6655a7c3cf536766b5ce5d9cb8a3cb40290a7eb13ff68549a6b",
  "args": [
    "0x5FbDB2315678afecb367f032d93F642f64180aa3",
    "500000000000000000",
    "0x79d3d8832d904592c0bf9818b621522c988bb8b0c05cdc3b15aea1b6e8db0c15",
    "1",
    "500000",
    30
  ],
  "numDeployments": 1,
  "solcInputHash": "baa501b8959837d912fe69c7dc999608",
  "bytecode": "0x6101606040523480156200001257600080fd5b506040516200175a3803806200175a8339818101604052810190620000389190620002a0565b858073ffffffffffffffffffffffffffffffffffffffff1660808173ffffffffffffffffffffffffffffffffffffffff1660601b81525050508460a081815250508573ffffffffffffffffffffffffffffffffffffffff1660c08173ffffffffffffffffffffffffffffffffffffffff1660601b815250508360e081815250508267ffffffffffffffff166101008167ffffffffffffffff1660c01b815250508163ffffffff166101208163ffffffff1660e01b815250506000600160146101000a81548160ff021916908360018111156200011957620001186200033c565b5b0217905550426002819055508061014081815250505050505050506200036b565b600080fd5b600073ffffffffffffffffffffffffffffffffffffffff82169050919050565b60006200016c826200013f565b9050919050565b6200017e816200015f565b81146200018a57600080fd5b50565b6000815190506200019e8162000173565b92915050565b6000819050919050565b620001b981620001a4565b8114620001c557600080fd5b50565b600081519050620001d981620001ae565b92915050565b6000819050919050565b620001f481620001df565b81146200020057600080fd5b50565b6000815190506200021481620001e9565b92915050565b600067ffffffffffffffff82169050919050565b62000239816200021a565b81146200024557600080fd5b50565b60008151905062000259816200022e565b92915050565b600063ffffffff82169050919050565b6200027a816200025f565b81146200028657600080fd5b50565b6000815190506200029a816200026f565b92915050565b60008060008060008060c08789031215620002c057620002bf6200013a565b5b6000620002d089828a016200018d565b9650506020620002e389828a01620001c8565b9550506040620002f689828a0162000203565b94505060606200030989828a0162000248565b93505060806200031c89828a0162000289565b92505060a06200032f89828a01620001c8565b9150509295509295509295565b7f4e487b7100000000000000000000000000000000000000000000000000000000600052602160045260246000fd5b60805160601c60a05160c05160601c60e0516101005160c01c6101205160e01c61014051611373620003e76000396000818161077701526107e50152600061063901526000610616015260006105f5015260006105b901526000818161028601526103950152600081816102d5015261032901526113736000f3fe6080604052600436106100a05760003560e01c8063473f1ddc11610064578063473f1ddc1461015b5780636e04ff0d1461018657806391ad27b4146101c4578063e55ae4e8146101ef578063f43b52cb1461022c578063fd6673f514610257576100a7565b806309bc33a7146100a9578063115cbaf5146100d45780631fe543e3146100ff5780632cfcc539146101285780634585e33b14610132576100a7565b366100a757005b005b3480156100b557600080fd5b506100be610282565b6040516100cb9190610b57565b60405180910390f35b3480156100e057600080fd5b506100e96102aa565b6040516100f69190610b57565b60405180910390f35b34801561010b57600080fd5b5061012660048036038101906101219190610d0b565b6102d3565b005b610130610393565b005b34801561013e57600080fd5b5061015960048036038101906101549190610dc2565b610502565b005b34801561016757600080fd5b5061017061070b565b60405161017d9190610e50565b60405180910390f35b34801561019257600080fd5b506101ad60048036038101906101a89190610f20565b610735565b6040516101bb92919061100c565b60405180910390f35b3480156101d057600080fd5b506101d96107e1565b6040516101e69190610b57565b60405180910390f35b3480156101fb57600080fd5b506102166004803603810190610211919061103c565b610809565b6040516102239190610e50565b60405180910390f35b34801561023857600080fd5b50610241610850565b60405161024e9190610b57565b60405180910390f35b34801561026357600080fd5b5061026c61085a565b6040516102799190610b57565b60405180910390f35b60007f0000000000000000000000000000000000000000000000000000000000000000905090565b6000600160149054906101000a900460ff1660018111156102ce576102cd611069565b5b905090565b7f000000000000000000000000000000000000000000000000000000000000000073ffffffffffffffffffffffffffffffffffffffff163373ffffffffffffffffffffffffffffffffffffffff161461038557337f00000000000000000000000000000000000000000000000000000000000000006040517f1cf993f400000000000000000000000000000000000000000000000000000000815260040161037c929190611098565b60405180910390fd5b61038f8282610866565b5050565b7f00000000000000000000000000000000000000000000000000000000000000003410156103ed576040517f8f4f27bb00000000000000000000000000000000000000000000000000000000815260040160405180910390fd5b6000600181111561040157610400611069565b5b600160149054906101000a900460ff16600181111561042357610422611069565b5b1461045a576040517f1425571c00000000000000000000000000000000000000000000000000000000815260040160405180910390fd5b6000339080600181540180825580915050600190039060005260206000200160009091909190916101000a81548173ffffffffffffffffffffffffffffffffffffffff021916908373ffffffffffffffffffffffffffffffffffffffff1602179055503373ffffffffffffffffffffffffffffffffffffffff167f0805e1d667bddb8a95f0f09880cf94f403fb596ce79928d9f29b74203ba284d460405160405180910390a2565b600061051c60405180602001604052806000815250610735565b5090508061058b5747600080549050600160149054906101000a900460ff16600181111561054d5761054c611069565b5b6040517f584327aa000000000000000000000000000000000000000000000000000000008152600401610582939291906110c1565b60405180910390fd5b60018060146101000a81548160ff021916908360018111156105b0576105af611069565b5b021790555060007f000000000000000000000000000000000000000000000000000000000000000073ffffffffffffffffffffffffffffffffffffffff16635d3b1d307f00000000000000000000000000000000000000000000000000000000000000007f000000000000000000000000000000000000000000000000000000000000000060037f000000000000000000000000000000000000000000000000000000000000000060016040518663ffffffff1660e01b815260040161067a959493929190611170565b602060405180830381600087803b15801561069457600080fd5b505af11580156106a8573d6000803e3d6000fd5b505050506040513d601f19601f820116820180604052508101906106cc91906111d8565b90507fcd6e45c8998311cab7e9d4385596cac867e20a0587194b954fa3a731c93ce78b816040516106fd9190610b57565b60405180910390a150505050565b6000600160009054906101000a900473ffffffffffffffffffffffffffffffffffffffff16905090565b60006060600080600181111561074e5761074d611069565b5b600160149054906101000a900460ff1660018111156107705761076f611069565b5b14905060007f0000000000000000000000000000000000000000000000000000000000000000600254426107a49190611234565b119050600080600080549050119050600080471190508380156107c45750825b80156107cd5750815b80156107d65750805b955050505050915091565b60007f0000000000000000000000000000000000000000000000000000000000000000905090565b600080828154811061081e5761081d611268565b5b9060005260206000200160009054906101000a900473ffffffffffffffffffffffffffffffffffffffff169050919050565b6000600254905090565b60008080549050905090565b600080805490508260008151811061088157610880611268565b5b602002602001015161089391906112c6565b905060008082815481106108aa576108a9611268565b5b9060005260206000200160009054906101000a900473ffffffffffffffffffffffffffffffffffffffff16905080600160006101000a81548173ffffffffffffffffffffffffffffffffffffffff021916908373ffffffffffffffffffffffffffffffffffffffff1602179055506000600160146101000a81548160ff0219169083600181111561093e5761093d611069565b5b0217905550600067ffffffffffffffff81111561095e5761095d610bc8565b5b60405190808252806020026020018201604052801561098c5781602001602082028036833780820191505090505b50600090805190602001906109a2929190610a97565b504260028190555060008173ffffffffffffffffffffffffffffffffffffffff16476040516109d090611328565b60006040518083038185875af1925050503d8060008114610a0d576040519150601f19603f3d011682016040523d82523d6000602084013e610a12565b606091505b5050905080610a4d576040517fa1d04b3900000000000000000000000000000000000000000000000000000000815260040160405180910390fd5b8173ffffffffffffffffffffffffffffffffffffffff167f5b690ec4a06fe979403046eaeea5b3ce38524683c3001f662c8b5a829632f7df60405160405180910390a25050505050565b828054828255906000526020600020908101928215610b10579160200282015b82811115610b0f5782518260006101000a81548173ffffffffffffffffffffffffffffffffffffffff021916908373ffffffffffffffffffffffffffffffffffffffff16021790555091602001919060010190610ab7565b5b509050610b1d9190610b21565b5090565b5b80821115610b3a576000816000905550600101610b22565b5090565b6000819050919050565b610b5181610b3e565b82525050565b6000602082019050610b6c6000830184610b48565b92915050565b6000604051905090565b600080fd5b600080fd5b610b8f81610b3e565b8114610b9a57600080fd5b50565b600081359050610bac81610b86565b92915050565b600080fd5b6000601f19601f8301169050919050565b7f4e487b7100000000000000000000000000000000000000000000000000000000600052604160045260246000fd5b610c0082610bb7565b810181811067ffffffffffffffff82111715610c1f57610c1e610bc8565b5b80604052505050565b6000610c32610b72565b9050610c3e8282610bf7565b919050565b600067ffffffffffffffff821115610c5e57610c5d610bc8565b5b602082029050602081019050919050565b600080fd5b6000610c87610c8284610c43565b610c28565b90508083825260208201905060208402830185811115610caa57610ca9610c6f565b5b835b81811015610cd35780610cbf8882610b9d565b845260208401935050602081019050610cac565b5050509392505050565b600082601f830112610cf257610cf1610bb2565b5b8135610d02848260208601610c74565b91505092915050565b60008060408385031215610d2257610d21610b7c565b5b6000610d3085828601610b9d565b925050602083013567ffffffffffffffff811115610d5157610d50610b81565b5b610d5d85828601610cdd565b9150509250929050565b600080fd5b60008083601f840112610d8257610d81610bb2565b5b8235905067ffffffffffffffff811115610d9f57610d9e610d67565b5b602083019150836001820283011115610dbb57610dba610c6f565b5b9250929050565b60008060208385031215610dd957610dd8610b7c565b5b600083013567ffffffffffffffff811115610df757610df6610b81565b5b610e0385828601610d6c565b92509250509250929050565b600073ffffffffffffffffffffffffffffffffffffffff82169050919050565b6000610e3a82610e0f565b9050919050565b610e4a81610e2f565b82525050565b6000602082019050610e656000830184610e41565b92915050565b600080fd5b600067ffffffffffffffff821115610e8b57610e8a610bc8565b5b610e9482610bb7565b9050602081019050919050565b82818337600083830152505050565b6000610ec3610ebe84610e70565b610c28565b905082815260208101848484011115610edf57610ede610e6b565b5b610eea848285610ea1565b509392505050565b600082601f830112610f0757610f06610bb2565b5b8135610f17848260208601610eb0565b91505092915050565b600060208284031215610f3657610f35610b7c565b5b600082013567ffffffffffffffff811115610f5457610f53610b81565b5b610f6084828501610ef2565b91505092915050565b60008115159050919050565b610f7e81610f69565b82525050565b600081519050919050565b600082825260208201905092915050565b60005b83811015610fbe578082015181840152602081019050610fa3565b83811115610fcd576000848401525b50505050565b6000610fde82610f84565b610fe88185610f8f565b9350610ff8818560208601610fa0565b61100181610bb7565b840191505092915050565b60006040820190506110216000830185610f75565b81810360208301526110338184610fd3565b90509392505050565b60006020828403121561105257611051610b7c565b5b600061106084828501610b9d565b91505092915050565b7f4e487b7100000000000000000000000000000000000000000000000000000000600052602160045260246000fd5b60006040820190506110ad6000830185610e41565b6110ba6020830184610e41565b9392505050565b60006060820190506110d66000830186610b48565b6110e36020830185610b48565b6110f06040830184610b48565b949350505050565b6000819050919050565b61110b816110f8565b82525050565b600067ffffffffffffffff82169050919050565b61112e81611111565b82525050565b600061ffff82169050919050565b61114b81611134565b82525050565b600063ffffffff82169050919050565b61116a81611151565b82525050565b600060a0820190506111856000830188611102565b6111926020830187611125565b61119f6040830186611142565b6111ac6060830185611161565b6111b96080830184611161565b9695505050505050565b6000815190506111d281610b86565b92915050565b6000602082840312156111ee576111ed610b7c565b5b60006111fc848285016111c3565b91505092915050565b7f4e487b7100000000000000000000000000000000000000000000000000000000600052601160045260246000fd5b600061123f82610b3e565b915061124a83610b3e565b92508282101561125d5761125c611205565b5b828203905092915050565b7f4e487b7100000000000000000000000000000000000000000000000000000000600052603260045260246000fd5b7f4e487b7100000000000000000000000000000000000000000000000000000000600052601260045260246000fd5b60006112d182610b3e565b91506112dc83610b3e565b9250826112ec576112eb611297565b5b828206905092915050565b600081905092915050565b50565b60006113126000836112f7565b915061131d82611302565b600082019050919050565b600061133382611305565b915081905091905056fea2646970667358221220f5bcc10fe36bcdbca1b28cfa50993acd6cc883b0acca7e48314a8bd08e7fbab464736f6c63430008080033",
  "devdoc": {
    "author": "Swarna Lye",
    "details": "This implements Chainlink VRF V2 and Chainlink Keepers",
    "kind": "dev",
    "methods": {
      "checkUpkeep(bytes)": {
        "details": "This is the function that the Chainlink keeper nodes call and if upkeepNeeded is true, performUpkeep function will be initiated. The following should be true in order for upkeepNeeded to return true: 1. Our time interval should have passed 2. The raffle should have at least 1 player and contract should have some ETH 3. Our subscription should be funded with LINK 4. The lottery should be in an open state"
      }
    },
    "title": "A raffle contract",
    "version": 1
  },
  "userdoc": {
    "kind": "user",
    "methods": {},
    "notice": "This contract is for a verifiably random and decentralized raffle smart contract",
    "version": 1
  },
  "storageLayout": {
    "storage": [
      {
        "astId": 204,
        "contract": "contracts/Raffle.sol:Raffle",
        "label": "s_players",
        "offset": 0,
        "slot": "0",
        "type": "t_array(t_address_payable)dyn_storage"
      },
      {
        "astId": 221,
        "contract": "contracts/Raffle.sol:Raffle",
        "label": "s_recentWinner",
        "offset": 0,
        "slot": "1",
        "type": "t_address"
      },
      {
        "astId": 224,
        "contract": "contracts/Raffle.sol:Raffle",
        "label": "s_raffleState",
        "offset": 20,
        "slot": "1",
        "type": "t_enum(RaffleState)199"
      },
      {
        "astId": 226,
        "contract": "contracts/Raffle.sol:Raffle",
        "label": "s_lastTimestamp",
        "offset": 0,
        "slot": "2",
        "type": "t_uint256"
      }
    ],
    "types": {
      "t_address": {
        "encoding": "inplace",
        "label": "address",
        "numberOfBytes": "20"
      },
      "t_address_payable": {
        "encoding": "inplace",
        "label": "address payable",
        "numberOfBytes": "20"
      },
      "t_array(t_address_payable)dyn_storage": {
        "base": "t_address_payable",
        "encoding": "dynamic_array",
        "label": "address payable[]",
        "numberOfBytes": "32"
      },
      "t_enum(RaffleState)199": {
        "encoding": "inplace",
        "label": "enum Raffle.RaffleState",
        "numberOfBytes": "1"
      },
      "t_uint256": {
        "encoding": "inplace",
        "label": "uint256",
        "numberOfBytes": "32"
      }
    }
  }
}